:020000040000FA
:100000000C9463000C941D070C94F6060C948B0062
:100010000C948B000C948B000C948B000C948B0034
:100020000C948B000C948B000C948B000C948B0024
:100030000C948B000C948B000C948B000C948B0014
:100040000C94AC060C948B000C946A070C94440737
:100050000C948B000C948B000C948B000C948B00F4
:100060000C949C070C948B000000000024002700D7
:100070002A000000000023002600290000000008DC
:10008000000201000003040700000000000000005F
:10009000010204081020408001020408102001021F
:1000A0000408102000000000250028002B00040494
:1000B0000404040404040202020202020303030310
:1000C0000303E5086C0D11241FBECFEFD8E0DEBF9F
:1000D000CDBF12E0A0E0B1E0E2EFFDE102C005908B
:1000E0000D92AA3BB107D9F724E0AAEBB2E001C018
:1000F0001D92A936B207E1F710E0C2E6D0E004C0D5
:100100002197FE010E94AD0DC136D107C9F70E94AB
:100110009F0A0C94EC0E0C94000088EE93E0089576
:10012000833081F028F4813099F08230A9F008956D
:100130008730A9F08830C9F08430B1F48091800014
:100140008F7D03C0809180008F7780938000089519
:1001500084B58F7784BD089584B58F7DFBCF809162
:10016000B0008F778093B00008958091B0008F7DAC
:10017000F9CFCF93DF93282F30E0F901E458FF4FF8
:100180008491F901E057FF4FD491F901E255FF4FF7
:10019000C491CC23A1F081110E949000EC2FF0E0DB
:1001A000EE0FFF1FEE58FF4FA591B491EC91ED2398
:1001B00081E090E009F480E0DF91CF91089580E044
:1001C00090E0FACF1F93CF93DF93282F30E0F9010F
:1001D000E458FF4F8491F901E057FF4FD491F901A2
:1001E000E255FF4FC491CC23A9F0162F81110E9434
:1001F0009000EC2FF0E0EE0FFF1FEC55FF4FA591A4
:10020000B4918FB7F894EC91111108C0D095DE230A
:10021000DC938FBFDF91CF911F910895DE2BF8CF34
:10022000CF93DF9390E0FC01E057FF4F249182557C
:100230009F4FFC0184918823C9F090E0880F991F9B
:10024000FC01E859FF4FA591B491FC01EC55FF4F1B
:10025000C591D49161110DC09FB7F8948C912095F0
:1002600082238C938881282328839FBFDF91CF919D
:100270000895623051F49FB7F8943C91822F809595
:1002800083238C93E8812E2BEFCF8FB7F894EC91DA
:100290002E2B2C938FBFEACF3FB7F8948091290380
:1002A00090912A03A0912B03B0912C0326B5A89B13
:1002B00005C02F3F19F00196A11DB11D3FBFBA2FF8
:1002C000A92F982F8827BC01CD01620F711D811DB8
:1002D000911D42E0660F771F881F991F4A95D1F73D
:1002E00008958F929F92AF92BF92CF92DF92EF923A
:1002F000FF924B015C010E944C016B017C010E944A
:100300004C016C197D098E099F09683E7340810577
:100310009105A8F321E0821A9108A108B10888EE9E
:10032000C80E83E0D81EE11CF11C81149104A104C5
:10033000B10429F7FF90EF90DF90CF90BF90AF907E
:100340009F908F900895089508950895AF92BF9259
:10035000CF92DF92EF92FF920F931F93CF93DF9391
:100360006C017B018B01040F151FEB015E01AE18C0
:10037000BF08C017D10759F06991D601ED91FC91E2
:100380000190F081E02DC6010995892B79F7C5010F
:10039000DF91CF911F910F91FF90EF90DF90CF9061
:1003A000BF90AF900895FC01538D448D252F30E010
:1003B000842F90E0821B930B541710F0CF96089572
:1003C00001970895FC01918D828D981761F0A28D9F
:1003D000AE0FBF2FB11D5D968C91928D9F5F9F7365
:1003E000928F90E008958FEF9FEF0895FC01918D1B
:1003F000828D981731F0828DE80FF11D858D90E088
:1004000008958FEF9FEF0895FC01918D228D892F24
:1004100090E0805C9F4F821B91098F73992708950C
:1004200081E893E00E94040221E0892B09F420E096
:10043000822F089580E090E0892B29F00E9410021D
:1004400081110C9400000895FC01A48DA80FB92F10
:10045000B11DA35ABF4F2C91848D90E001968F73EC
:100460009927848FA689B7892C93A089B1898C910B
:10047000837080648C93938D848D981306C002885A
:10048000F389E02D80818F7D80830895EF92FF9224
:100490000F931F93CF93DF93EC0181E0888F9B8DA7
:1004A0008C8D98131AC0E889F989808185FF15C061
:1004B0009FB7F894EE89FF896083E889F989808184
:1004C0008370806480839FBF81E090E0DF91CF9153
:1004D0001F910F91FF90EF900895F62E0B8D10E075
:1004E0000F5F1F4F0F731127E02E8C8D8E110CC0E4
:1004F0000FB607FCFACFE889F989808185FFF5CF2F
:10050000CE010E942402F1CFEB8DEC0FFD2FF11DE7
:10051000E35AFF4FF0829FB7F8940B8FEA89FB896B
:1005200080818062CFCFCF93DF93EC01888D8823C9
:10053000B9F0AA89BB89E889F9898C9185FD03C046
:10054000808186FD0DC00FB607FCF7CF8C9185FF2B
:10055000F2CF808185FFEDCFCE010E942402E9CF4A
:10056000DF91CF9108952091DB02260F3327331FAF
:1005700021323105ECF420915703FC0190E080E03A
:10058000243069F082E00895A091DB022191AC0152
:1005900045545D4FA40FB52FB11D2C9301968617BE
:1005A00098F38091DB02680F6093DB0280E008958E
:1005B00081E008951092570381E0809356031092D2
:1005C000310361E082E10E94E20061E083E10E9488
:1005D000E200E9EBF0E080818E7F808380818D7F77
:1005E000808388E48093B80085E48093BC000895FC
:1005F000CF93DF9391E09093BA028823B9F0C09132
:10060000B800D091BA008091BC008A7B8093BC0076
:1006100060E082E10E94E20060E083E10E94E2008B
:100620000E94DA02D093BA00C093B800DF91CF9154
:1006300008958F929F92AF92BF92CF92DF92EF92E6
:10064000FF920F931F93CF93DF93D0918003D1320A
:1006500008F0D7C0182FC0917F030E944C016B0196
:100660007C018091570381116BC082E08093570316
:10067000109356038FEF8093550310925403D09339
:100680005303AFE5B3E0E3E3F3E080E0D81391C0B8
:100690001092320380913203CC0FC82BC0933203E7
:1006A00080913103813009F088C0109231030E949B
:1006B0004C016B017C01809132038093BB008091DF
:1006C000590390915A03A0915B03B0915C03892B6D
:1006D0008A2B8B2BA1F00E944C01009159031091A1
:1006E0005A0320915B0330915C036C197D098E09DC
:1006F0009F09061717072807390708F442C0809199
:10070000BC0083FDD8CF85EC8093BC000E944C01D7
:100710006B017C0180915703823009F450C08091B5
:1007200055038F3F09F46FC080915503803209F45F
:100730006CC080915503803309F469C084E026C001
:100740008091590390915A03A0915B03B0915C038F
:10075000892B8A2B8B2B09F484CF0E944C0180902B
:10076000590390905A03A0905B03B0905C036C19FE
:100770007D098E099F0986169706A806B90608F016
:1007800070CF809158030E94F80285E010925E03BA
:100790001092800310925D03DF91CF911F910F9112
:1007A000FF90EF90DF90CF90BF90AF909F908F9091
:1007B00008959D9191938F5F69CF85EEA5CF80912C
:1007C000590390915A03A0915B03B0915C03892B6C
:1007D0008A2B8B2B09F49ECF0E944C010091590368
:1007E00010915A0320915B0330915C036C197D09D1
:1007F0008E099F09061717072807390708F08ACFBF
:10080000C0CF81E0C3CF80E0C1CF82E0BFCF83E023
:10081000BDCF0895E091230380912203E81730F4BF
:10082000F0E0E250FD4F808190E008958FEF9FEF60
:10083000089590912303809122032FEF3FEF9817A3
:1008400048F4E92FF0E0E250FD4F208130E09F5F57
:1008500090932303C901089580912203909123036B
:10086000891B990B0895CF92DF92EF92FF920F931D
:100870001F93CF93DF937C01CB018A0120915D030D
:10088000222389F0EB016B01C40ED51ECC15DD05CA
:1008900069F06991D701ED91FC910190F081E02D13
:1008A000C7010995F3CF642F0E94B302C801DF91FD
:1008B000CF911F910F91FF90EF90DF90CF9008950F
:1008C000CF93DF931F92CDB7DEB7698320915D038D
:1008D0002223F9F020918003203258F021E030E00B
:1008E000FC013383228390E080E00F90DF91CF9171
:1008F000089580915E03E82FF0E0E15AFC4F998162
:1009000090838F5F80935E038093800381E090E00B
:10091000ECCF61E0CE0101960E94B302F7CF90E0E8
:1009200080E008951F93CF93DF93EA01122FDC013B
:1009300011968D919C91DC01ED91FC910280F381E7
:10094000E02D0995C817D90729F4812F0E941903B2
:1009500091E0811190E0892FDF91CF911F9108954F
:10096000CF93DF93EC018B818823A1F0888191E004
:1009700090935D0380937F0310925E031092800337
:1009800081E00E94190391E0811190E0892FDF91AD
:10099000CF910895109223031092220310925E03C8
:1009A000109280030E94DA0283EA91E090931F0381
:1009B00080931E0384EA91E09093210380932003A7
:1009C00081E08B83CE010E94B004982F8111CECF9D
:1009D000DDCF88EE93E0089588EE93E0089588EEE9
:1009E00093E0089588EE93E0089588EE93E00895EB
:1009F00088EE93E0089588EE93E00895CF93DF9317
:100A000000D000D01F92CDB7DEB7660F660F6A5FC9
:100A100069831A825B832C833D83FC0181819281EF
:100A2000FC01248135812530310590F0208131E0B1
:100A300030935D0320937F0310925E031092800336
:100A400021E045E050E0BE016F5F7F4F0E949204BD
:100A50000F900F900F900F900F90DF91CF9108950E
:100A60009A0150E040E0CB960C94FE04CF92DF92C6
:100A7000EF92FF921F93CF93DF93EC01C880D98050
:100A8000EA80FB808C8583FD75C0613009F470C0FD
:100A900080518C878C858F738C8740EF5FE06C81F1
:100AA0008D859E850E94300540EF5FE06F818D85CA
:100AB0009E850E9430058C8590E023E09595879572
:100AC0002A95E1F710E08830910524F48E5E9E4F60
:100AD000FC0110816E818D859E85CB9630E020E0F3
:100AE00050E040E010FF02C040E050E10E94FE04F0
:100AF00068858D859E85CB9630E020E050E040E013
:100B000011FF02C040E050E10E94FE046D818D851E
:100B10009E85CB9630E020E050E040E012FF02C01E
:100B200040E050E10E94FE0469858D859E85CB964C
:100B300030E020E050E040E013FF02C040E050E130
:100B40000E94FE04F2E0CF16D10450F0CC0CDD1C64
:100B5000CC0CDD1C85E0C81AD108C6010197F1F75D
:100B6000DF91CF911F91FF90EF90DF90CF9008958C
:100B7000805F8FCF613011F088508BCF885F89CF35
:100B8000CF93DF9300D0CDB7DEB769834A83FC01F2
:100B900081819281FC01248135812230310590F0E0
:100BA000208131E030935D0320937F0310925E0338
:100BB0001092800321E042E050E0BE016F5F7F4F62
:100BC0000E9492040F900F90DF91CF910895FC0145
:100BD00001900020E9F73197AF01481B590BBC0188
:100BE00081E893E00C94A601CF93DF93EB01880F8B
:100BF000991FFC01E65FFE4F80819181009711F003
:100C00000E94E705CE010E94E7058EE391E0DF91A7
:100C1000CF910C94E705EF92FF920F931F93CF9320
:100C2000DF937C01062F68EE73E080E090E00E9485
:100C30007101C1E1D7E2802F0E94B900892BC1F474
:100C4000219739F461E471E083E090E00E94F405BB
:100C5000FFCF6E2D80912F03909130030E943605B7
:100C600062E080912D0390912E030E943605E3CF20
:100C700060E671E090E080E00E94F40568EE73E0C9
:100C800080E090E00E94710111E0EA94EF2809F4FD
:100C900012E0C1E1D7E2802F0E94B9000197C1F4B0
:100CA000219739F461E471E083E090E00E94F4055B
:100CB000FFCF612F80912F03909130030E94360562
:100CC00061E080912D0390912E030E943605E3CFC1
:100CD00067E771E090E080E0DF91CF911F910F9185
:100CE000FF90EF900C94F40585ED8093BC0080910B
:100CF000590390915A03A0915B03B0915C0307964E
:100D0000A11DB11D23E0B695A795979587952A95C6
:100D1000D1F72091BC0024FD03C010925703089521
:100D20004091590350915A0360915B0370915C03A9
:100D3000452B462B472B69F30097A105B10541F0E0
:100D40002AE22A95F1F700C00197A109B109E1CF84
:100D5000809158030C94F8021F920F920FB60F92D5
:100D600011242F933F938F939F93AF93BF938091C1
:100D7000250390912603A0912703B0912803309179
:100D8000240323E0230F2D3758F50196A11DB11D33
:100D9000209324038093250390932603A093270395
:100DA000B09328038091290390912A03A0912B03EB
:100DB000B0912C030196A11DB11D8093290390933E
:100DC0002A03A0932B03B0932C03BF91AF919F9163
:100DD0008F913F912F910F900FBE0F901F901895FC
:100DE00026E8230F0296A11DB11DD2CF1F920F92AC
:100DF0000FB60F9211242F933F934F935F936F93EE
:100E00007F938F939F93AF93BF93EF93FF93E09163
:100E10000201F09103010995FF91EF91BF91AF910C
:100E20009F918F917F916F915F914F913F912F9102
:100E30000F900FBE0F901F9018951F920F920FB634
:100E40000F9211242F933F934F935F936F937F9350
:100E50008F939F93AF93BF93EF93FF93E091000124
:100E6000F09101010995FF91EF91BF91AF919F9191
:100E70008F917F916F915F914F913F912F910F9043
:100E80000FBE0F901F9018951F920F920FB60F92E2
:100E900011242F933F934F935F936F937F938F937F
:100EA0009F93AF93BF93EF93FF9381E893E00E94EA
:100EB0002402FF91EF91BF91AF919F918F917F910C
:100EC0006F915F914F913F912F910F900FBE0F90B7
:100ED0001F9018951F920F920FB60F9211242F9307
:100EE0008F939F93EF93FF93E0919103F09192037F
:100EF0008081E0919703F091980382FD1BC090815F
:100F000080919A038F5F8F7320919B03821741F02A
:100F1000E0919A03F0E0EF57FC4F958F80939A038E
:100F2000FF91EF919F918F912F910F900FBE0F9096
:100F30001F9018958081F4CF1F920F920FB60F92D9
:100F400011242F933F934F935F936F937F938F93CE
:100F50009F93AF93BF93EF93FF938091B900887FE6
:100F6000803609F44AC0F0F5883209F4A7C018F5B4
:100F7000803109F49BC0B8F4882309F4F9C08830A3
:100F800009F494C0FF91EF91BF91AF919F918F9120
:100F90007F916F915F914F913F912F910F900FBE75
:100FA0000F901F901895883109F488C0803251F74E
:100FB0008093550314C0803409F49DC040F48033FD
:100FC000B9F38833F9F68093550385ECB0C08035CA
:100FD00009F485C0883509F496C0883499F60E94D2
:100FE0007406D0CF883909F48CC038F5883729F0D9
:100FF00050F4883611F0803729F683E08093570348
:101000001092FD0257C0883809F47BC0803919F06E
:10101000803809F0B7CF8091FD02803208F071C0AE
:10102000E091FD0281E08E0F8093FD028091BB0074
:10103000F0E0E352FD4F80833DC0803B39F0E0F4A7
:10104000803A09F479C0883A09F09CCF84E0809313
:1010500057031092DC021092DB02E0911E03F09124
:101060001F0309958091DB0281110FC081E08093FD
:10107000DB021092BB0209C0803C09F4A6CF883C79
:1010800009F4A3CF883B09F07DCFE091DC0281E039
:101090008E0F8093DC02F0E0E554FD4F8081809359
:1010A000BB009091DC028091DB0229C08091320369
:1010B0008093BB0085EC8093BC0064CF9091540377
:1010C00080915303981758F5E091540381E08E0FF7
:1010D00080935403F0E0ED5CFC4F8081E9CFE09118
:1010E000540381E08E0F809354038091BB00F0E0A5
:1010F000ED5CFC4F808390915403809153039817CB
:10110000C8F285E8D8CFE091540381E08E0F809338
:1011100054038091BB00F0E0ED5CFC4F8083809134
:10112000560381115CCF81E08093310384EA809380
:10113000BC001092570326CF85EC8093BC00109220
:1011400057038091FD02803230F4E091FD02F0E01F
:10115000E352FD4F10826091FD0270E0E0912003A8
:10116000F09121038DED92E009951092FD020ACFD6
:101170001092550334CFCF93C82F40915D0450E0B7
:10118000682F70E080915A0490915B040E94D80E01
:10119000892BC9F0E0915804F091590484E1C89F6B
:1011A000E00DF11D1124108211821282138214822B
:1011B000158216821782108611861286138614866F
:1011C000158617861686CF9108951F93CF93DF93C8
:1011D000109284031092830388EE93E0A0E0B0E0C5
:1011E0008093850390938603A0938703B09388032D
:1011F0002EE131E0309382032093810325EC30E02F
:1012000030938E0320938D0324EC30E030939003D1
:1012100020938F0320EC30E03093920320939103CE
:1012200021EC30E0309394032093930322EC30E0E0
:10123000309396032093950326EC30E03093980387
:101240002093970310929A0310929B0310929C0391
:1012500010929D0310922104109220048093220486
:1012600090932304A0932404B093250480E391E099
:1012700090931F0480931E0410922B04109232044A
:101280001092390410923A0410923B0410923C04DC
:1012900081E080933804809335041092360492E004
:1012A0009093370480932A0482ED90E090932F046A
:1012B00080932E040E94B30D9093340480933304E2
:1012C000009709F4AFC022EDDC011D922A95E9F7E1
:1012D00086E490E090932D0480932C0486E090E0C7
:1012E000909331048093300480912B04882341F043
:1012F00061E086E00E94100160E086E00E94E2006A
:10130000E4EBF0E0E491F0E0EE0FFF1FEC55FF4F4F
:101310008591949190933E0480933D04E6E9F0E03A
:10132000E491E0933F048DE890E090934304809330
:1013300042048BEF94E0909345048093440488EF3B
:1013400094E0909347048093460485EF94E0909353
:1013500049048093480482EF94E090934B04809377
:101360004A048FEE94E090934D0480934C048CEEED
:1013700094E090934F0480934E0489EE94E0909310
:10138000510480935004109253041092520410920E
:101390005E0483E380933204109254048AE08093C5
:1013A0005C0480935D0488EC90E00E94B30DFC0126
:1013B0009C0128533F4F44E1DF01542F1D925A9561
:1013C000E9F77496E217F307B9F7909357048093FF
:1013D00056048AE090E00E94B30D9C01265F3F4FC7
:1013E000FC011192E217F307E1F790935B048093FD
:1013F0005A0480915D04C82FD0E0A4E18A9FC00107
:101400001124009711F481E090E00E94B30DFC01DB
:1014100024E1219780F0DF01322F1D923A95E9F700
:101420007496F7CF10922F0410922E0410922D0470
:1014300010922C0453CF8093580490935904209118
:101440005604309157043093600420935F048093D6
:10145000610490936204C0E040915C04C41728F4D6
:101460008C2F0E94BB08CF5FF7CF84E1489FA0017B
:10147000112470E060E080915604909157040E941E
:10148000E50E40915D0450E06FEF70E080915A04EA
:1014900090915B040E94E50E10925E0480915C04C2
:1014A000882309F448C081E080935E04E0915604EB
:1014B000F09157041182108285E490E09383828337
:1014C000168288EE93E095838483178280E090E013
:1014D000AFEFB0E080879187A287B3871486158627
:1014E00016861786108A118A128A138AC0915D04A3
:1014F000CC2309F1D0915A0410915B044C2F50E099
:1015000070E060E08D2F912F0E94D80E892B99F406
:101510003D2F8D2F912F282F231B2C1760F4FC01BA
:10152000019620812F3FB9F7108280E0DF91CF91A3
:101530001F910C94BB08DF91CF911F910895CF9319
:10154000DF93CDB7DEB7EF970FB6F894DEBF0FBECF
:10155000CDBF789484B5826084BD84B5816084BD3C
:1015600085B5826085BD85B5816085BD80916E0041
:10157000816080936E001092810080918100826072
:1015800080938100809181008160809381008091AF
:1015900080008160809380008091B100846080939E
:1015A000B1008091B00081608093B00080917A009A
:1015B000846080937A0080917A00826080937A00C0
:1015C00080917A00816080937A0080917A008068AF
:1015D00080937A001092C100E0919103F091920300
:1015E00082E08083E0918D03F0918E031082E09180
:1015F0008F03F09190038FEC808310929903E09118
:101600009503F091960386E08083E0919303F09137
:101610009403808180618083E0919303F09194032F
:10162000808188608083E0919303F09194038081AE
:1016300080688083E0919303F091940380818F7D93
:10164000808366EA71E081E090E00E94F40562E048
:1016500088E00E94100162E086E00E941001FE0115
:101660003496CE014C961482138215821282118216
:10167000108236968E179F07B1F718A61BA618AED4
:1016800030E6F32EF98248EC50E05FA34EA39E01B2
:101690002F5F3F4F3AA729A768E068A36DE06BA3CF
:1016A0006AE069A369E06AA36BE06CA36CE06DA3D8
:1016B0009093300380932F03DD24D394DBAE5FAB94
:1016C0004EAB3AAF29AF82E088AB87E08BAB84E0CA
:1016D00089AB83E08AAB85E08CAB86E08DABCE0135
:1016E0008C9690932E0380932D03FCAE86E090E0C1
:1016F0000E94B30D8C01DC01FC928EE194E0129605
:101700009C938E93119713961C92139780E290E00E
:1017100015969C938E9314971EAF0DAF10922303D2
:101720001092220310925E03109280030E94DA024C
:1017300083EA91E090931F0380931E0384EA91E073
:101740009093210380932003F801D382C8010E9463
:10175000B004882309F4B9C140E060E0CE01CC9622
:101760000E94C00580E496E09B838A831FAEEDACA7
:10177000FEACD70114968D919C911597892B09F495
:10178000FEC08C91D0925D0380937F0310925E0324
:101790001092800320E041E050E0BE01615C7F4F89
:1017A000C7010E949204882309F4E9C0DD24D39480
:1017B000AA24AA9495EEC92E25ECB22E01E0F701D9
:1017C00084819581892B09F400E0802E912CD7012A
:1017D0003C900E944C012B013C01809157038111E8
:1017E00064C0102FD092570300935603A092550364
:1017F000109254038FEF800F80935303D0923203E3
:1018000080913203330C382A3092320380913103B5
:10181000813009F08CC0109231030E944C012B01E1
:101820003C01809132038093BB00809159039091D9
:101830005A03A0915B03B0915C03892B8A2B8B2BFD
:10184000A1F00E944C012091590330915A0340911C
:101850005B0350915C036419750986099709261783
:1018600037074807590708F441C08091BC0083FD41
:10187000D8CFB092BC000E944C012B013C0180915A
:101880005703813009F456C080915403801710F437
:1018900010915403A3E3B3E0EEEFF2E080E0811790
:1018A00051F19D9191938F5FFACF8091590390915F
:1018B0005A03A0915B03B0915C03892B8A2B8B2B7D
:1018C00009F48BCF0E944C012091590330915A03A7
:1018D00040915B0350915C0364197509860997096F
:1018E000261737074807590708F077CF8091580324
:1018F0000E94F80210E01092230310932203012F9C
:1019000010E008151905D9F590E080E080179107DF
:1019100098F5F70181819281DC01ED91FC910284BF
:10192000F385E02D09958FAF81E090E0EFCFC09275
:10193000BC00A1CF8091590390915A03A0915B0301
:10194000B0915C03892B8A2B8B2B09F498CF0E94D2
:101950004C012091590330915A0340915B035091FF
:101960005C03641975098609970926173707480724
:10197000590708F084CFBACF012B09F41FCF1FAD50
:10198000412F4F76406160E0CE01CC960E94C005A9
:1019900043E06EEFCE01CC960E94C005412F60E07F
:1019A000CE01CC960E94C00565E070E080E090E03A
:1019B0000E947101412F416A60E0CE01CC960E94E5
:1019C000C00510E030E020E050E040E0612FCE01A3
:1019D000CC960E94FE041F5F1031A1F700912F03E7
:1019E00010913003F80122853385A4E6B0E00E940F
:1019F0009E0D9B01AC01C12C87E8D82E83E9E82E0F
:101A000083E0F82EC701B6010E947C0DD8012D930A
:101A10003D934D935C93139700912D0310912E03EA
:101A2000F80122853385A4E6B0E00E949E0D9B015B
:101A3000AC01C701B6010E947C0DD8012D933D93E6
:101A40004D935C9313976AEF71E081E090E00E9400
:101A5000F4056CE072E081E090E00E94F40564E23D
:101A600072E090E080E00E94F40566E070E081E0C2
:101A700090E00E940B066AE372E090E080E00E9432
:101A8000F4056DE472E090E080E00E94F40568E007
:101A900070E082E090E00E940B0663E672E090E066
:101AA00080E00E94F40566E772E081E090E00E9429
:101AB000F40500E010E001151105E9F30E941002A1
:101AC0008823C9F30E940000F6CF6DED71E083E03A
:101AD00090E00E94F405FFCF80913304909134048C
:101AE0000E944F0E809130049091310497FD03C005
:101AF00060E00C9410010895A1E21A2EAA1BBB1BF2
:101B0000FD010DC0AA1FBB1FEE1FFF1FA217B307C9
:101B1000E407F50720F0A21BB30BE40BF50B661FDF
:101B2000771F881F991F1A9469F7609570958095A3
:101B300090959B01AC01BD01CF010895A29FB0011A
:101B4000B39FC001A39F700D811D1124911DB29FF1
:101B5000700D811D1124911D0895EE0FFF1F05903A
:101B6000F491E02D09940F931F93CF93DF9382306C
:101B7000910510F482E090E0E0916704F091680430
:101B800030E020E0B0E0A0E0309799F42115310575
:101B900009F44AC0281B390B24303105D8F58A8155
:101BA0009B816115710589F1FB0193838283FE019D
:101BB00011C0408151810281138148175907E0F01B
:101BC0004817590799F4109761F012960C931297E1
:101BD00013961C933296CF01DF91CF911F910F91F5
:101BE00008950093670410936804F4CF211531051C
:101BF00051F04217530738F0A901DB019A01BD01EA
:101C0000DF01F801C1CFEF01F9CF90936804809311
:101C10006704CDCFFE01E20FF31F81939193225011
:101C2000310939832883D7CF209165043091660428
:101C3000232B41F420910601309107013093660473
:101C4000209365042091040130910501211531058F
:101C500041F42DB73EB74091080150910901241B72
:101C6000350BE0916504F0916604E217F307A0F4E8
:101C70002E1B3F0B2817390778F0AC014E5F5F4FE2
:101C80002417350748F04E0F5F1F509366044093AA
:101C90006504819391939FCFF0E0E0E09CCFCF93D8
:101CA000DF930097E9F0FC01329713821282A09132
:101CB0006704B0916804ED0130E020E01097A1F4D2
:101CC00020813181820F931F209165043091660439
:101CD0002817390709F061C0F0936604E0936504A2
:101CE000DF91CF910895EA01CE17DF07E8F54A8129
:101CF0005B819E0141155105B1F7E901FB83EA8340
:101D000049915991C40FD51FEC17FD0761F48081EB
:101D100091810296840F951FE901998388838281BE
:101D200093819B838A83F0E0E0E012968D919C91F1
:101D300013970097B9F52D913C911197CD0102961B
:101D4000820F931F2091650430916604281739078C
:101D500039F6309751F51092680410926704B093E9
:101D60006604A0936504BCCFD383C28340815181B4
:101D7000840F951FC817D90761F44E5F5F4F8881A4
:101D80009981480F591F518340838A819B81938396
:101D900082832115310509F0B0CFF0936804E093F8
:101DA00067049ECFFD01DC01C0CF13821282D7CF22
:101DB000FC014150504030F001900616D1F73197A8
:101DC000CF010895882799270895DC0101C06D93FC
:101DD00041505040E0F7089510E0C2E6D0E004C062
:101DE000FE010E94AD0D2196C336D107C9F7F894C4
:101DF000FFCFA501A50100006904800096029F02A3
:101E0000A802B10201030206040C08090000000048
:101E10004602A601D30193020402E201F60100008A
:101E20000000600433048F0409042C0419040A041C
:101E30000D0A004D61782052656765737472617494
:101E4000696F6E2073746570732072656163686575
:101E50006400547269676765726564206C696D69B6
:101E600074207377697463680052656C656173658B
:101E700064206C696D6974207377697463682E20BF
:101E80004178697320726567697374657220636F46
:101E90006D706C6574652E00457865637574696E48
:101EA00067205365747570202A2A2A2A2A2A2A2A2A
:101EB0002A2A2A2A2A2A2A2A2A2A2A2A2A2A2A2A82
:101EC0002A2A2A2A2A2A2A2A2A2A2A2A2A2A004383
:101ED0006F756C64206E6F74207374617274206D02
:101EE0006F746F7220736865696C64004D6F746FF6
:101EF000727320496E6974696C697A656400526511
:101F0000676973746572696E672043617272696193
:101F100067652E2E2E005265676573746572696E53
:101F200067205920617869732E2E2E005920617820
:101F3000697320726567697374657265642E0052F7
:101F400065676573746572696E672058206178698A
:101F5000732E2E2E00582061786973207265676990
:101F60007374657265642E0043617272696167659E
:101F700020726567697374726174696F6E20636F34
:101F80006D706C6574652E005B44454255475D205D
:101F9000005B494E464F5D2020005B4552524F5238
:0C1FA0005D20005B464154414C5D200078
:107E0000112484B714BE81FFF0D085E080938100F7
:107E100082E08093C00088E18093C10086E0809377
:107E2000C20080E18093C4008EE0C9D0259A86E02C
:107E300020E33CEF91E0309385002093840096BBD3
:107E4000B09BFECF1D9AA8958150A9F7CC24DD24C4
:107E500088248394B5E0AB2EA1E19A2EF3E0BF2EE7
:107E6000A2D0813461F49FD0082FAFD0023811F036
:107E7000013811F484E001C083E08DD089C08234E0
:107E800011F484E103C0853419F485E0A6D080C0E4
:107E9000853579F488D0E82EFF2485D0082F10E0AE
:107EA000102F00270E291F29000F111F8ED06801E7
:107EB0006FC0863521F484E090D080E0DECF843638
:107EC00009F040C070D06FD0082F6DD080E0C81688
:107ED00080E7D80618F4F601B7BEE895C0E0D1E017
:107EE00062D089930C17E1F7F0E0CF16F0E7DF06D8
:107EF00018F0F601B7BEE89568D007B600FCFDCFD4
:107F0000A601A0E0B1E02C9130E011968C91119780
:107F100090E0982F8827822B932B1296FA010C0160
:107F200087BEE89511244E5F5F4FF1E0A038BF0790
:107F300051F7F601A7BEE89507B600FCFDCF97BE46
:107F4000E89526C08437B1F42ED02DD0F82E2BD052
:107F50003CD0F601EF2C8F010F5F1F4F84911BD097
:107F6000EA94F801C1F70894C11CD11CFA94CF0C13
:107F7000D11C0EC0853739F428D08EE10CD085E9AC
:107F80000AD08FE07ACF813511F488E018D01DD067
:107F900080E101D065CF982F8091C00085FFFCCF94
:107FA0009093C60008958091C00087FFFCCF809118
:107FB000C00084FD01C0A8958091C6000895E0E648
:107FC000F0E098E1908380830895EDDF803219F02E
:107FD00088E0F5DFFFCF84E1DECF1F93182FE3DFCA
:107FE0001150E9F7F2DF1F91089580E0E8DFEE27F6
:047FF000FF270994CA
:027FFE00040479
:00000001FF
